:020000040000FA
:0400000039EF00F0E4
:100008005782FACF4BF0FBCF4CF0E1CF4DF0E2CF67
:100018004EF0D9CF4FF0DACF50F0F3CF51F0F4CF04
:1000280052F0F6CF53F0F7CF54F0F8CF55F0F5CFA4
:1000380056F0E5EC0BF056C0F5FF55C0F8FF54C07C
:10004800F7FF53C0F6FF52C0F4FF51C0F3FF50C092
:10005800DAFF4FC0D9FF4EC0E2FF4DC0E1FF4CC0F0
:0E006800FBFF4BC0FAFF57921100FCEF13F0A4
:1008000000E3088108B508480805010906A10105AB
:100810000719E029E7150025017501950881029562
:1008200001750881039505750105081901290591D0
:100830000295017503910395067508150025FF05BE
:1008400007190029FF8100C009023900020100C018
:100850003209040000020301010009211101000115
:10086000223F000705810308000107050103080076
:10087000010904010001FFFFFF00070582030800D2
:100880000134034D006900630072006F006300686B
:100890000069007000200054006500630068006E6D
:1008A000006F006C006F0067007900200049006E47
:1008B0000063002E001C034B006500790062006F8E
:1008C000006100720064002000440065006D006F4C
:1008D000001201000200000008D8045500010001C8
:1008E0000200010403090400200E266001D012005A
:1008F00060B2120004D00DC0CCF00EC0CDF00D508F
:100900000001CC19F8E10E50CD19D8A4F4D70B5042
:10091000CC5D0101476F0C500001CD590101486FBA
:1009200048AF10D00B500001CC5DE46F0C50CD5996
:10093000E56FFF0EE4250101476F7F0E0001E52101
:100940000101486F48BF0DD0890E475D130E48590D
:10095000D8A007D0780E0001CC250B6EEC0ECD216F
:100960000C6EEEEC12F001500210D8B406D001C0AB
:10097000D9FF02C0DAFFDFBEA5D0000E0001D46FA0
:10098000050ED56F000ED76F000ED66F000ED96F13
:10099000080ED86FEEEC08F01650D8B416D0000E42
:1009A0000101436F0ED04351030D190EF324D96E8C
:1009B000010EF420DA6EDF5005010011006F010115
:1009C000432B1650435DD8A0EED71750D8B429D08A
:1009D000000E01014D6F21D0060E4D611DD04D510D
:1009E000030D610EF324D96E000EF420DA6EDF5091
:1009F00005010011006F01014D51030D600EF3243C
:100A0000D96E000EF420DA6E020E4D25E16EE26A18
:100A1000050EE222DFCFE7FF4D2B17504D5DD8A02A
:100A2000DBD7000E0101426F000E4A6F000E4A250F
:100A3000D96EDA6A050EDA22A00E4A25E16EE26A64
:100A4000000EE222DE50E618D8B403D0010E426F49
:100A500004D04A2B070E4A65E9D70001CE51CF11C9
:100A6000D8B40FD0CE510101475D4851800A000132
:100A7000E46FCF51800AE459D8A003D0010E0101E0
:100A8000426F01014205D8A41DD025EE00F010EE02
:100A9000A0F0070EDBCFE3FFE806FCE2010E000149
:100AA000D46F000ED56F050ED66F080ED76F010EEE
:100AB00089EC0DF0D4C001F0D5C002F0CCC00BF031
:100AC000CDC00CF0000E0101446F15D0C4C038F148
:100AD000C5C039F1C6C03AF14451030D180EF324D4
:100AE000D96E010EF420DA6E38C1DEFF39C1DEFFA7
:100AF0003AC1DEFF442B1650445DD8A0E7D7000E64
:100B0000456F15D0C1C03BF1C2C03CF1C3C03DF13F
:100B10004551030D600EF324D96E000EF420DA6EF9
:100B20003BC1DEFF3CC1DEFF3DC1DEFF452B175060
:100B3000455DD8A0E7D7000E166E000E176E0001B7
:100B4000CA51CB11D8B406D0CAC0D9FFCBC0DAFF86
:100B5000DFBE69D01550D8B466D021EE30F0070E54
:100B6000DE6AE806FDE2000E0101496F11D049512D
:100B7000030D000EF324D96E010EF420DA6E300E50
:100B80004925E16EE26A010EE222DFCFE7FF492B41
:100B90001550495DD8A0EBD7000E416F000E4B6F8A
:100BA000070E4B6501D015D0980E4B25D96EDA6A29
:100BB000000EDA22300E4B25E16EE26A010EE222CF
:100BC000DE50E618D8B403D0010E416F02D04B2B93
:100BD000E7D74105D8A427D0010E0001D46F300E0D
:100BE000D56F010ED66F080ED76F020E89EC0DF08F
:100BF000D4C0CAF0D5C0CBF0000E01014C6F070E77
:100C00004C6501D010D0300E4C25D96EDA6A010E39
:100C1000DA22980E4C25E16EE26A000EE222DFCF66
:100C2000E7FF4C2BECD7000E0101466F15D0BEC07C
:100C30003EF1BFC03FF1C0C040F14651030D000E70
:100C4000F324D96E010EF420DA6E3EC1DEFF3FC1FF
:100C5000DEFF40C1DEFF462B1550465DD8A0E7D72A
:100C6000000E156E03500410D8B406D003C0D9FF8F
:100C700004C0DAFFDFBE120004EC15F0000E000124
:100C8000D46F080ED56F050ED66F010ED76F010E0B
:100C900089EC0DF0D4C003F0D5C004F012000401BB
:100CA0002205D8A410D020511F0B0009D8A40BD0C6
:100CB0000001B38F030E04012119D8A402D0010E44
:100CC00001D0000E236E2251D8A4120020511F0B18
:100CD000020AD8A4120024510F0B0009D8B4120044
:100CE00024510F0B406E020E40601200200E261899
:100CF000D8A412000001B38F040124BF18D02451DE
:100D00000F0B406E4050020DBA0EF324D96E000E48
:100D1000F420DA6EDECF45F0DDCF46F024510F0B24
:100D2000406E416AD00E4024D96E000E17D0245177
:100D30000F0B406E4050020DB60EF324D96E000E1C
:100D4000F420DA6EDECF45F0DDCF46F024510F0BF4
:100D5000406E416AD20E4024D96E000E4120DA6EF8
:100D6000DF50446E44B006D0FB0E4514456EFF0EB6
:100D7000461404D0040E4510456E4650466E24BFFE
:100D80000AD024510F0B406E4050020DBA0EF324CE
:100D9000D96E000E09D024510F0B406E4050020D49
:100DA000B60EF324D96E000EF420DA6E45C0DEFFD5
:100DB00046C0DDFF030E2119D8A42AD045C0D9FFB3
:100DC00046C0DAFFDFAE17D024BF09D024510F0B85
:100DD000406E416AD00E4024D96E000E08D02451D6
:100DE0000F0B406E416AD20E4024D96E000E412096
:100DF000DA6E0001DF8245C0D9FF46C0DAFF000E7F
:100E0000DB8445C0D9FF46C0DAFF000EDB8E12003E
:100E1000040E4518456E4650466E45C0D9FF46C083
:100E2000DAFFDFAE1BD045C0D9FF46C0DAFF7F0E28
:100E3000DF1645C0D9FF46C0DAFF000EDB8C000E7E
:100E4000396E050E386E45C03AF046C03BF0000ED4
:100E50003D6E020E3C6EC5EC11F006D045C0D9FFC8
:100E600046C0DAFF000EDB8C040E4518456E465076
:100E7000466E44B206D045C0D9FF46C0DAFFDFAEA9
:100E80002DD0040124BF09D024510F0B406E416ABC
:100E9000D00E4024D96E000E08D024510F0B406EA6
:100EA000416AD20E4024D96E000E4120DA6E000154
:100EB000DF9245C0D9FF46C0DAFF3B0EDF16000EB9
:100EC000396E050E386E45C03AF046C03BF0000E54
:100ED0003D6E020E3C6EC5EC11F006D045C0D9FF48
:100EE00046C0DAFF3B0EDF16040124510F0B406EA3
:100EF000416A6A0E4024426E0F0E4120436E42C08A
:100F0000D9FF43C0DAFFFE0EDF1612003E00013F9C
:100F10000001400001410001420001430001440082
:100F2000014500012100011E00011F0001200001F8
:100F300022000123000124000125000118400115B1
:100F400040011740011C40010C40011440011A40AF
:100F5000010840013500013900012B000129000181
:100F60003A00013B00013C00013D00012600012741
:100F700000012D00012E00010700030600030500FB
:100F8000030100030000000200034900014A0001C0
:100F90004B00014E00014D00014C000116400107BD
:100FA000400131000104000303000312400113401B
:100FB000010440011400011500011700010940015E
:100FC0000A40010B40011A00010800011600011B34
:100FD00040010E40011D400104000107000109000D
:100FE000010F40012A00013000010C00011800012E
:100FF0001C00011200012F00011300010E00010B63
:1010000000013400013300010F00012800010D0030
:10101000010A00011900011B000105400106000141
:101020001940011D0001064001114001E64002E3A4
:101030000802E10202E204020D4001E780022C00F6
:1010400001E0010238000137000136000110000103
:10105000110001050001000000E520025A00015DB9
:1010600000016000015400015300015F00015C00B9
:1010700001590001560001570001580001630001A9
:101080005B00015E0001610001550001520001504A
:1010900000015100014F0001E410026200016500EF
:1010A00001000000800E04012019D8A41200C00E17
:1010B0000001B36F80D0D10E0001B06F080EB16F88
:1010C000000EB56F120EB46F12002251D8A440D09A
:1010D0002251020D070EF324F66E080EF420F76E6F
:1010E0000900F5CFB0F00A00F5CFB1F0020E000113
:1010F000B0252C6E000EB1212D6E2CC0F6FF2DC038
:10110000F7FFF86A070EF76403D00800F55005D022
:10111000F6CFE1FFF7CFE2FFE7500001B46F030E17
:10112000B0252C6E000EB1212D6E2CC0F6FF2DC007
:10113000F7FFF86A070EF76403D00800F55005D0F2
:10114000F6CFE1FFF7CFE2FFE7500001B56F1200E5
:10115000000E0001B36F1200030E226124D0225151
:10116000020D010EF324F66E080EF420F76E09004E
:10117000F5CFB0F00A00F5CFB1F0B0C0F6FFB1C0C6
:10118000F7FFF86A070EF76403D00800F55005D0A2
:10119000F6CFE1FFF7CFE2FFE7502C6E2C500001B5
:1011A000B46FB56B1200000E0001B36F1200000E99
:1011B0000001B36F1200040123512C6E2D6A2D50D3
:1011C000000AD8A4F4D72C50010AD8B474D7030A63
:1011D000D8B47BD7010AD8B4BFD7E9D7D4C0DEF0E2
:1011E000D5C0DFF00001D851D911D8B41200DEC04B
:1011F000D9FFDFC0DAFFD6C0DFFFD851DE25DA6FB6
:10120000D951DF21DB6FFF0EDA25D96EFF0EDB210E
:10121000DA6ED6C0DFFFD95104E1030ED85DD8A045
:10122000120020EE01F0DE51D926DF51DA22D6C0BD
:10123000DFFF20EE02F0DE51D926DF51DA22D6C0E0
:10124000DFFFD851DE25DA6FD951DF21DB6FFE0ECB
:10125000DA25D96EFF0EDB21DA6ED6C0DFFFD8515A
:10126000DE25DA6FD951DF21DB6FFD0EDA25D96E6D
:10127000FF0EDB21DA6ED6C0DFFFD95104E1070E85
:10128000D85DD8A0120020EE03F0DE51D926DF5140
:10129000DA22D6C0DFFFD851DE25DA6FD951DF213F
:1012A000DB6FFC0EDA25D96EFF0EDB21DA6ED6C0BD
:1012B000DFFFD95104E1090ED85DD8A01200DEC0CD
:1012C000DAF0DFC0DBF0DA1FDB1FDA4BDB2B030EBB
:1012D000DA15DC6FDD6BDC51DE27DD51DF23DC51FD
:1012E000D85FDD51D95BFC0ED817FF0ED9170BD094
:1012F000DEC0D9FFDFC0DAFFD6C0DFFFD807D8A035
:10130000D907DE4BDF2BD851D911D8B41200F0D752
:101310002CC036F02DC037F030503110D8B4120048
:1013200036C0D9FF37C0DAFF2EC0DFFF3050362479
:10133000326E31503720336EFF0E3224D96EFF0EDD
:101340003320DA6E2EC0DFFF315004E1030E305C33
:10135000D8A0120020EE01F03650D9263750DA22FC
:101360002EC0DFFF20EE02F03650D9263750DA22A9
:101370002EC0DFFF30503624326E31503720336EAE
:10138000FE0E3224D96EFF0E3320DA6E2EC0DFFF40
:1013900030503624326E31503720336EFD0E3224F9
:1013A000D96EFF0E3320DA6E2EC0DFFF315004E11C
:1013B000070E305CD8A0120020EE03F03650D9267C
:1013C0003750DA222EC0DFFF30503624326E3150D3
:1013D0003720336EFC0E3224D96EFF0E3320DA6EC6
:1013E0002EC0DFFF315004E1090E305CD8A012009E
:1013F00036C032F037C033F0321E331E324A332A41
:10140000030E3214346E356A345036263550372286
:101410003450305E3550315AFC0E3016FF0E311606
:101420000BD036C0D9FF37C0DAFF2EC0DFFF300641
:10143000D8A03106364A372A30503110D8B41200BD
:10144000F0D720EE01F01350D9261450DA22DF50E5
:10145000306E30500001AC5D000EAD59D8A0ACC06C
:1014600030F03050AC5F000EAD5B000E2F6E0FD031
:10147000280E2F24D96EDA6A040EDA22A8C0E1FF02
:10148000A9C0E2FFDFCFE7FFA84BA92B2F2A3050DE
:101490002F5CD8A0EDD7AC51AD11D8B432D020EE2E
:1014A00001F01150D9261250DA22080EDF6E20EE1C
:1014B00002F01150D9261250DA22280EDE6E040EE8
:1014C000DD6E13C0D9FF14C0DAFFDFBC0DD011C030
:1014D000D9FF12C0DAFF480EDF6E11C0D9FF12C06B
:1014E000DAFF000EDB8E120011C0D9FF12C0DAFF46
:1014F000080EDF6E11C0D9FF12C0DAFF000EDB8EBE
:10150000120020EE01F01150D9261250DA22080EF6
:10151000DF6E20EE02F01150D9261250DA22200E92
:10152000DE6E040EDD6E11C0D9FF12C0DAFF040EAC
:10153000DF6E11C0D9FF12C0DAFF000EDB8EAE5194
:10154000AF11D8B40ED020EEAEF001D80AD005000D
:10155000FA6EDE50FD6EDE50FE6EF850FF6EFA50F1
:1015600012000001AB9F1E50D8A41200B4EC10F082
:101570001200A394000E676E000E656E000E6A6E78
:101580006B0E0001D46F0F0ED56F000ED76F000EDB
:10159000D66F000ED96F010ED86FEEEC08F0120E68
:1015A000626E9F0E666E7B0E646E000E0001E06F31
:1015B000E051040D000EF324D96E040EF420DA6E0F
:1015C000DE6ADE6ADE6ADD6AE02B070EE065F0D7D0
:1015D000608C000E636E6098609C6596000EB36F21
:1015E000000EAB6F000EAD6F000EAC6F65B6F5D799
:1015F000010E1D6E010E1C6E000E1B6E000E1A6E8B
:10160000000E226E000EE06FE051020DB60EF324C4
:10161000D96E000EF420DA6E000EDE6E000EDD6E66
:10162000E051020DBA0EF324D96E000EF420DA6EEA
:10163000000EDE6E000EDD6ED20EE025D96EDA6A87
:10164000000EDA22000EDF6ED00EE025D96EDA6AC7
:10165000000EDA22000EDF6EE02B010EE065D4D71B
:10166000080EB66F040EB76F160E6A6E040E0401F4
:10167000036F200E026F080E016F040E006F008FC3
:10168000000E2B6E000E056E000E066E000E076E2D
:10169000000E086E000E196E000E266E1200A39446
:1016A000000E676E000E656E000E6A6E6B0E2C6E7D
:1016B0000F0E2D6E000E2F6E000E2E6E000E316E70
:1016C000010E306E88EC09F0120E626E9F0E666E8F
:1016D0007B0E646E000E386E3850040D000EF3243D
:1016E000D96E040EF420DA6EDE6ADE6ADE6ADD6A26
:1016F000382A070E3864F0D7608C000E636E60984D
:10170000609C6596000E0001B36F000EAB6F000E7B
:10171000AD6F000EAC6F65B6F4D7010E1D6E010EF5
:101720001C6E000E1B6E000E1A6E000E226E000E56
:10173000386E3850020DB60EF324D96E000EF42028
:10174000DA6E000EDE6E000EDD6E3850020DBA0E3F
:10175000F324D96E000EF420DA6E000EDE6E000E59
:10176000DD6ED20E3824D96EDA6A000EDA22000E4F
:10177000DF6ED00E3824D96EDA6A000EDA22000E3F
:10178000DF6E382A010E3864D4D7080E0001B66F18
:10179000040EB76F160E6A6E040E0401036F200E5E
:1017A000026F080E016F040E006F008F000E2B6E8B
:1017B000000E056E000E066E000E076E000E086E1F
:1017C000000E196E000E266E12002604D8B460BA00
:1017D00006D0000E656E64806488020E266E65B4C5
:1017E00064A403D06594D6EC15F060A202D0A49452
:1017F000120065B064A006D04FEC0BF0A384040E79
:10180000266E659065B864A802D035EC16F065AC1C
:101810001AD064AC0ED0000E396E730E386E000E06
:101820003A6E000E3B6E000E3D6E010E3C6EC5EC36
:1018300011F0659C5EEC16F01F50D8A41F061F50D7
:10184000D8B4B4EC10F065BA64AA02D0E3EC14F09A
:1018500065B264A20FD07F0E396E3868000E3A6E02
:10186000000E3B6E000E3D6E010E3C6EC5EC11F09D
:10187000000E676E040E266002D0A494120064A6C7
:1018800034D0000E4A6E65A630D061CF29F02930E1
:10189000E832E8320F0B216E659629B406D0D00EDF
:1018A0002124D96EDA6A000E05D0D20E2124D96E19
:1018B000DA6A000EDA220001DF702150D8A403D0CA
:1018C00011EC12F00ED0000E396E720E386E290E29
:1018D0003A6E000E3B6E000E3D6E000E3C6EC5EC87
:1018E00011F04A2A030E4A64CED7A494120018506D
:1018F000D8B41200000E0001DA6F62D0DA51030D85
:10190000780EF324D96E000EF420DA6E1750030D12
:10191000600EF324E16E000EF420E26EDECFE6FFEF
:10192000DECFE6FFDECFE6FF172A49D0DA51030DFE
:10193000780EF324D96E000EF420DA6E1650030DE3
:10194000180EF324E16E010EF420E26EDECFE6FF06
:10195000DECFE6FFDECFE6FF162A31D0DA51030DE7
:10196000780EF324D96E000EF420DA6E1550030DB4
:10197000000EF324E16E010EF420E26EDECFE6FFEE
:10198000DECFE6FFDECFE6FF152A19D0DA51030DD0
:101990007A0EF324D96E000EF420DA6EDF50D46F85
:1019A000D56BD551000AD8A40AD0D451010AD8B4B5
:1019B000A5D7030AD8B4BAD7010AD8B4CFD7DA2B3F
:1019C0001850DA5DD8A0E2D7000ED96F15D0C7C085
:1019D000D6F0C8C0D7F0C9C0D8F0D951030D780EE1
:1019E000F324D96E000EF420DA6ED6C0DEFFD7C025
:1019F000DEFFD8C0DEFFD92B1850D95DD8A0E7D7BD
:101A0000000E186E1200040120511F0BE806D8A426
:101A100012002451D8A41200060E2119D8B41AD0ED
:101A200028D02B04D8A425D05A0E0001B06F080E80
:101A3000B16F000EB56F090E0BD0C00EB36F19D089
:101A4000090E0001B06F080EB16F000EB56F3F0EAA
:101A5000B46FF3D723512E6E2F6A2F50000AD8A4EB
:101A600008D02E50210AD8B4DCD7030AD8B4E8D75E
:101A7000010A04012039E832030BE806D8A4120059
:101A80002DD06DEC16F01200280E0001B06F000E84
:101A9000B16F000EB56F010EB46FC10EB36F1200BF
:101AA000800E0001B36F23C428F028C02CF004017D
:101AB000225186EC16F01200270E0001B06F000EC6
:101AC000B16F000EB56F010EB46F810EB36F1200CF
:101AD000800E0001B36F22C427F0120021512E6E38
:101AE0002F6A2F50000AD8A412002E50010AD8B431
:101AF0001200030AD8B4C8D7010AD8B4DDD70A0A3D
:101B0000D8B4BFD7030AD8B4CBD7010AD8A41200DF
:101B1000DFD70001DC6F0001D451D8B407D0DC510D
:101B2000020DB60EF324D96E000E06D0DC51020D64
:101B3000BA0EF324D96E000EF420DA6EDECFDDF09B
:101B4000DDCFDEF0DD51DE11D8A405D0000ED46F5C
:101B5000000ED56F120020EE02F0DD51D926DE51C5
:101B6000DA22D5C0DEFFD6C0DDFF20EE01F0DD5168
:101B7000D926DE51DA22D7C0DFFFDDC0D9FFDEC0B3
:101B8000DAFF400EDF16DDC0D9FFDEC0DAFF000E3F
:101B9000DB86DDC0D9FFDEC0DAFF000EDB8ED4515C
:101BA000D8B418D0DC51020DB60EF324D96E000E55
:101BB000F420DA6EDECFD8F0DDCFD9F0040ED819DC
:101BC000DA6FD951DB6FDC51020DB60EF324D96EFA
:101BD000000E17D0DC51020DBA0EF324D96E000EA0
:101BE000F420DA6EDECFD8F0DDCFD9F0040ED819AC
:101BF000DA6FD951DB6FDC51020DBA0EF324D96EC6
:101C0000000EF420DA6EDAC0DEFFDBC0DDFFDDC0DF
:101C1000D4F0DEC0D5F01200346E2C50D8B407D00A
:101C20003450020DB60EF324D96E000E06D0345097
:101C3000020DBA0EF324D96E000EF420DA6EDECF58
:101C400035F0DDCF36F035503610D8A405D0000E73
:101C50002C6E000E2D6E120020EE02F03550D926AB
:101C60003650DA222DC0DEFF2EC0DDFF20EE01F05F
:101C70003550D9263650DA222FC0DFFF35C0D9FFC4
:101C800036C0DAFF400EDF1635C0D9FF36C0DAFFA6
:101C9000000EDB8635C0D9FF36C0DAFF000EDB8EC2
:101CA0002C50D8B418D03450020DB60EF324D96E8F
:101CB000000EF420DA6EDECF30F0DDCF31F0040E0E
:101CC0003018326E3150336E3450020DB60EF3249C
:101CD000D96E000E17D03450020DBA0EF324D96E0F
:101CE000000EF420DA6EDECF30F0DDCF31F0040EDE
:101CF0003018326E3150336E3450020DBA0EF32468
:101D0000D96E000EF420DA6E32C0DEFF33C0DDFF84
:101D100035C02CF036C02DF01200B6C0D9FFB7C0C8
:101D2000DAFF0001000EDFBC010E2F6E040EB619A3
:101D3000B66FB751B76F080E2618D8A40BD00401A0
:101D400022517F0B636E6350D8B402D0100E01D0C5
:101D5000040E266E2404D8A43BD0000120EE02F02D
:101D6000B651D926B751DA22280EDE6E040EDD6E8A
:101D70004EEC10F0020E2518D8A40DD0B6C0D9FF35
:101D8000B7C0DAFF040EDF6EB6C0D9FFB7C0DAFF06
:101D9000000EDB8E12002F50D8A40DD0B6C0D9FF94
:101DA000B7C0DAFF480EDF6EB6C0D9FFB7C0DAFFA2
:101DB000000EDB8E1200B6C0D9FFB7C0DAFF080EE6
:101DC000DF6EB6C0D9FFB7C0DAFF000EDB8E12009F
:101DD0000001ABAF14D0AE51AF11D8B40ED020EE8D
:101DE000AEF001D80AD00500FA6EDE50FD6EDE506E
:101DF000FE6EF850FF6EFA5012000001AB9F000E0D
:101E0000246E120004012039E832030B0009D8A423
:101E1000120042D00001B38F080E266E120052EC61
:101E200008F01200E4EC0FF012002B0E0001B06F6E
:101E3000000EB16FB381010EB46FB38F120016ECB8
:101E400011F012004FEC06F012002A0E24250001BA
:101E5000B06FB16B000EB123B381010EB46FB38FBD
:101E600012000001B38F2A0E04012425D96EDA6A0C
:101E7000000EDA2222C4DFFF1200000E396E020EBD
:101E8000386E000E3A6E000E3B6E000E3D6E000E78
:101E90003C6EC5EC11F012002151476E486A485063
:101EA000000AD8A412004750000AD8B4C8D7010AC3
:101EB000D8B4C8D7020AD8B4C5D7060AD8B4AAD7A6
:101EC000030AD8B4ACD7010AD8B4D7D70F0AD8B40C
:101ED000ACD7010AD8B4A6D7030AD8B4B6D7010A3A
:101EE000D8B4BFD7070A120060980001B3BF38D03A
:101EF000ABAF0BD0020E246E1A50D8B476EC11F0B2
:101F0000000E1C6E000E1D6E120020EE01F011502E
:101F1000D9261250DA22080EDF6E20EE02F01150A0
:101F2000D9261250DA22200EDE6E040EDD6E11C0AC
:101F3000D9FF12C0DAFF0C0EDF6E11C0D9FF12C03C
:101F4000DAFF000EDB8EB6C0D9FFB7C0DAFF040E91
:101F5000DF6EB6C0D9FFB7C0DAFF000EDB8E12000D
:101F6000040120AF10D0010E246E1B50D8B476ECC3
:101F700011F0000E1C6E000E1D6E1E50D8A4120033
:101F8000B4EC10F01200020E246E20EE01F011509D
:101F9000D9261250DA22080EDF6E20EE02F0115020
:101FA000D9261250DA22200EDE6E040EDD6E11C02C
:101FB000D9FF12C0DAFF040EDF6E11C0D9FF12C0C4
:101FC000DAFF000EDB8ED5D70001B38F6B0E2C6EBF
:101FD0000F0E2D6E000E2F6E000E2E6E000E316E47
:101FE000010E306E88EC09F0000E2C6E040E2D6E82
:101FF000000E2F6E000E2E6E000E316E200E306E13
:1020000088EC09F0608C000E406ED20E4024D96E30
:10201000DA6A000EDA22000EDF6ED00E4024D96E8E
:10202000DA6A000EDA22000EDF6E402A010E4064EA
:10203000ECD72A0E2C6E000E2D6E000E2F6E000EA9
:102040002E6E000E316E010E306E88EC09F0609C31
:10205000080E0001B66F040EB76F000E136E040E6B
:10206000146E13C011F014C012F022C42BF02B50C8
:10207000D8A403D0100E266E1200000E396E010E89
:10208000386E2B0E3A6E000E3B6E000E3D6E010E4A
:102090003C6EC5EC11F0200E266E1200080E2C6E60
:1020A0000001B55110E1080EB45DD8B00CD0B4C039
:1020B0002CF02550D8A402D0010E04D02504D8A4B9
:1020C00002D0020E256E2C50B45F000EB55B20EEE0
:1020D00001F0B651D926B751DA222CC0DFFF280E05
:1020E0000F6E040E106EB3A11CD03AD0B0C0F6FF34
:1020F000B1C0F7FFF86A0FC0D9FF10C0DAFF070EB2
:10210000F76403D00800F55005D0F6CFE1FFF7CF14
:10211000E2FFE750DF6E0001B04BB12B0F4A102AEF
:102120002C062C50D8B41200E1D7B0C0F6FFB1C0D5
:10213000F7FFF86A0FC0D9FF10C0DAFF070EF76487
:1021400003D00800F55005D0F6CFE1FFF7CFE2FF4E
:10215000E750DF6E0001B04BB12B0F4A102A2C065E
:102160002C50D8B41200E1D71D50D8A41200010E93
:102170001D6E1C50D8A41200010E1C6E020E2418F5
:10218000D8A416D0000120EE01F0B651D926B751DF
:10219000DA22000EDF6EB6C0D9FFB7C0DAFF480EF4
:1021A000DF6EB6C0D9FFB7C0DAFF000EDB8E1200BB
:1021B0002404D8A41200000E206E20EE01F013506B
:1021C000D9261450DA22080EDF6E20EE02F01350EA
:1021D000D9261450DA22200EDE6E040EDD6E13C0F6
:1021E000D9FF14C0DAFF040EDF6E13C0D9FF14C08C
:1021F000DAFF000EDB8E010E206E20EE01F0115092
:10220000D9261250DA22080EDF6E20EE02F01150AD
:10221000D9261250DA22200EDE6E040EDD6E11C0B9
:10222000D9FF12C0DAFF800EDF6E1200000E04012B
:10223000286F000E296F3DD00001B38F2304D8A46E
:102240004AD00401288347D00001B38F44D0000155
:10225000B38F040124510F0B0009D8B43CD024BF24
:102260000AD024510F0B2C6E2C50020DBA0EF32401
:10227000D96E000E09D024510F0B2C6E2C50020D7C
:10228000B60EF324D96E000EF420DA6EDECF2EF0F7
:10229000DDCF2FF02EC0D9FF2FC0DAFFDFAE1BD06D
:1022A0002EC0D9FF2FC0DAFFDFA415D0010E286F92
:1022B00012D020511F0B2C6E2D6A2D50000AD8A46D
:1022C0000AD02C50000AD8B4B7D7010AD8B4BCD76A
:1022D000030AD8B4BCD70001B3AF1200280EB06F08
:1022E000040EB16FB381020EB46F1200000E1B6EAC
:1022F000000E1A6E020E2418D8A41FD020EE01F092
:102300001150D9261250DA22080EDF6E20EE02F0AC
:102310001150D9261250DA22280EDE6E040EDD6E20
:1023200011C0D9FF12C0DAFF480EDF6E11C0D9FF0D
:1023300012C0DAFF000EDB8E12000001B45104015E
:10234000265D0001B55104012759D8B004D026C438
:10235000B4F027C4B5F04EEC10F0000120EE02F00E
:10236000B651D926B751DA22280EDE6E040EDD6E84
:10237000B6C0D9FFB7C0DAFF480EDF6EB6C0D9FFCE
:10238000B7C0DAFF000EDB8E120022D030EC13F063
:102390000D2804E17F0E0E18D8B403D00D4A0E2A82
:1023A0001200000E0E6E000E0D6E120030EC13F0D7
:1023B000010E51EC14F0120030EC13F0020E51EC4F
:1023C00014F012009BEC13F0120003EC0DF012005D
:1023D00038C03EF039C03FF03F50000AD8B404D0B6
:1023E0007F0AD8A412001AD03E50010AD8B4EAD706
:1023F000030AD8B41200010AD8B4E7D7060AD8B441
:102400001200770AD8B41200010AD8B4BFD7070A5D
:10241000D8B4D2D7010AD8A41200C8D73E50FF0AB8
:1024200012002D0E1F6E29C049F0FD0E4916D8A4CA
:102430003BD029C049F0D89049323F0E4916495047
:10244000040D000EF324136E040EF420146E13C05A
:1024500011F014C012F0040E1118116E1250126E09
:1024600013C0D9FF14C0DAFFDF30E8320F0B0D0ABA
:10247000D8A417D0200E2C6E040E2D6E20EE02F084
:102480001350D9261450DA22DECF2EF0DDCF2FF0F4
:10249000000E316E080E306EC1EC14F0A6EC12F096
:1024A0001200CEEC13F012002950FD0B040AD8A440
:1024B00012008DEC0EF01200316E000E326E040E22
:1024C000336E2C502D6E2E6AD8902D362E3631500C
:1024D0002F6E306AD8902F363036D8902F3630365F
:1024E0002D502F262E503022D8902F363036D890AF
:1024F0002F3630362F5032263050332232C0D9FF9B
:1025000033C0DAFFDF9E2C50D8A407D03150020D23
:10251000BA0EF324D96E000E06D03150020DB60E5D
:10252000F324D96E000EF420DA6E32C0DEFF33C021
:10253000DDFF32C0D9FF33C0DAFFDF9C20EE04F0AC
:102540003250D9263350DA22DF8C1200000E256E6D
:10255000000E1E6E000E1B6E000E1A6E000E206E18
:10256000000E246EB6C0D9FFB7C0DAFF7F0EDF16AB
:10257000040E0001B619B66FB751B76FB6C0D9FFD8
:10258000B7C0DAFF7F0EDF16040EB619B66FB7516B
:10259000B76F11C0D9FF12C0DAFF7F0EDF16000E31
:1025A000B36F000EB56F000EB46F000EAB6F000E70
:1025B000AD6F000EAC6F02EC0FF0000E396E030E23
:1025C000386E000E3A6E000E3B6E000E3D6E000E31
:1025D0003C6EC5EC11F074EC0FF01200000E00011F
:1025E000E26F010EE36F000EDF6FE3C08CFFE3517B
:1025F000E325E36FE25166EC13F00001E22BDF2BE1
:10260000070EDF65F2D7000E8C6E010EE36F000E31
:10261000E06FE3C08AFFE351E325E36FE25166EC2C
:1026200013F00001E22BE02B050EE065F2D7000E5F
:102630008A6E010EE36F000EE16FE3C08BFFE35182
:10264000E325E36FE25166EC13F00001E22BE12B8E
:10265000020EE165F2D7000E8B6E77EC0CF01200E3
:1026600060B2120024D009040A10D8B42CD04B0E4A
:1026700009180A10D8B427D00A5004E1970E095C53
:10268000D8A021D0000E0A6E000E096E1CD00904DD
:102690000A10D8B418D0320E09180A10D8B413D0C2
:1026A000B70E095C030E0A58D8B0ECD70CD02650F0
:1026B0002C6E2D6A2D50000AD8A4E9D72C50200A80
:1026C000D8B4D1D7E4D7094A0A2A12000001DB6F37
:1026D000010E0001DD6F80CFDCF0000EDE6FDC51FB
:1026E000DD150009D8B41ED0DE51030DF3CFD7F0AD
:1026F000F4CFD8F0DB51180D090ED96F050EDA6F43
:10270000F350D927F450DA23D751D925D96ED851AF
:10271000DA21DA6EDECFD4F0DECFD5F0DDCFD6F021
:102720004BEC16F00001DD51DD25DD6FDE2B070ED1
:10273000DE65D5D71200000E016E000E026E000E8F
:102740000001CA6F000ECB6F010ECF6FF40ECE6F7B
:1027500004D00DC00BF00EC00CF00D500B18F9E1B9
:102760000E500C18D8A4F5D71E0E346E010EBAEC1C
:1027700015F01A0E346E020EBAEC15F0000E2C6E27
:10278000080E2D6E050E2E6E010E2F6E010E0CEC36
:102790000EF02CC003F02DC004F01200020E24181D
:1027A000D8A403D021EC0AF01200000E246E2050B1
:1027B000D8A41FD020EE01F01150D9261250DA22F1
:1027C000080EDF6E20EE02F01150D9261250DA22E8
:1027D000200EDE6E040EDD6E11C0D9FF12C0DAFFCE
:1027E0000C0EDF6E11C0D9FF12C0DAFF000EDB8EB7
:1027F0001200000E206E12000C0EF66E0F0EF76E19
:10280000000EF86E05EE09F011EE98F00900F5CF14
:10281000EEFFE550E150FAE1E250F8E101EE00F0A0
:10282000300EEE6AE806FDE100EE60F0740EEE6A2E
:10283000E806FDE100EE01F02B0EEE6AE806FDE190
:1028400057905792000EF86E00017CEF16F00001D1
:10285000D96F16D0800E9B6E600ED36E100ED26EA6
:10286000D2AEFED7900EB56E010E79EC14F0020ECA
:1028700079EC14F0030E79EC14F007EC16F012006A
:102880000001D951D76FD86BD851000AD8A41200D3
:10289000D751000AD8B4DED7010AD8B41200030A0F
:1028A0001200316E16D0800E9B6E600ED36E100E2D
:1028B000D26ED2AEFED7900EB56E010E9EEC14F025
:1028C000020E9EEC14F0030E9EEC14F01EEC16F0BB
:1028D000120031502F6E306A3050000AD8A4120016
:1028E0002F50000AD8B4DFD7010AD8B41200030A67
:1028F00012000001D66F0CD096900F015F9112006C
:1029000096920F015F91120096940F015F91120051
:102910000001D651D46FD56BD551000AD8A412004E
:10292000D451000AD8B41200010AD8B4E5D7030A7A
:10293000D8B4E6D7010AD8A41200E6D72E6E0CD080
:1029400096900F015F91120096920F015F91120015
:1029500096940F015F9112002E502C6E2D6A2D500F
:10296000000AD8A412002C50000AD8B41200010AA0
:10297000D8B4E6D7030AD8B4E7D7010AD8A412001E
:10298000E7D72EC034F02FC035F02CC032F02DC068
:1029900033F010D034C0D9FF35C0DAFFDF50366EC7
:1029A000344A352A32C0D9FF33C0DAFF36C0DFFFE0
:1029B000324A332A3006D8A031063028EBE13128DC
:1029C000D8B41200E7D76AA01DD013C0D9FF14C035
:1029D000DAFF800EDE18D8A414D0B6C0D9FFB7C075
:1029E000DAFF840EDE18D8A40CD013C0D9FF14C0AF
:1029F000DAFF0C0EDF6E13C0D9FF14C0DAFF000E31
:102A0000DB8E6A90659A1200050108A304D0010EBE
:102A100023EC15F003D0010E42EC15F0050108A1DE
:102A200004D0020E23EC15F003D0020E42EC15F098
:102A3000050108A504D0030E23EC15F01200030EC7
:102A400042EC15F012000001D66F06D08D80120006
:102A50008D8212008D8412000001D651D46FD56B87
:102A6000D551000AD8A41200D451000AD8B41200DB
:102A7000010AD8B4EBD7030AD8B4EAD7010AD8A41C
:102A80001200E8D70001D66F06D08D9012008D920B
:102A900012008D9412000001D651D46FD56BD55120
:102AA000000AD8A41200D451000AD8B41200010AB6
:102AB000D8B4EBD7030AD8B4EAD7010AD8A41200D5
:102AC000E8D7050108A304D0010E80EC15F003D06F
:102AD000010E9DEC15F0050108A104D0020E80EC5A
:102AE00015F003D0020E9DEC15F0050108A504D0E9
:102AF000030E80EC15F01200030E9DEC15F0120091
:102B00002E6E06D08D8012008D8212008D841200F0
:102B10002E502C6E2D6A2D50000AD8A412002C5075
:102B2000000AD8B41200010AD8B4ECD7030AD8B40A
:102B3000EBD7010AD8A41200E9D72E6E06D08D90EB
:102B400012008D9212008D9412002E502C6E2D6A60
:102B50002D50000AD8A412002C50000AD8B412003C
:102B6000010AD8B4ECD7030AD8B4EBD7010AD8A429
:102B70001200E9D7376E34A405D0000E2C6E375002
:102B80005CEC12F034A205D0010E2C6E37505CECD8
:102B900012F06A0E3724356E366A0F0E362235C0B3
:102BA000D9FF36C0DAFF34C0DFFF1200000E226EFC
:102BB000000E396E740E386E000E3A6E000E3B6ECB
:102BC000000E3D6E000E3C6EC5EC11F060926494F8
:102BD00001D0659465B4FDD7000E196E1200265021
:102BE000D8A41200000E606E000E646E120E626EAB
:102BF0009F0E666E7B0E646ED08EA584A384F28ECB
:102C000001D0608660A6FDD7010E266E1200000E70
:102C10000F015C6F000E5D6F000E5E6F000E5B6F4C
:102C2000000E936E000E946E000E956E9268000E6C
:102C30008A6E000E8B6E000E8C6E1200000E0F015D
:102C40005C6F000E5D6F000E5E6F000E5B6F000E1E
:102C5000936E000E946E000E956E9268000E8A6E52
:102C6000000E8B6E000E8C6E12006484659860827C
:102C7000010E226E000E196E000E396E750E386E42
:102C8000000E3A6E000E3B6E000E3D6E000E3C6E66
:102C9000C5EC11F01200080E186012001850030D58
:102CA000780EF324D96E000EF420DA6ED4C0DEFF65
:102CB000D5C0DEFFD6C0DEFF182A1200010E0526A1
:102CC000000E0622072208222250D8A41200192A38
:102CD0001950D8A4120019681200280E0001A86F1C
:102CE000040EA96F000EAD6F080EAC6F1E0EAE6F16
:102CF0002D0EAF6FAB8F1200000E27EC14F0B9EC65
:102D00000AF0EFEC15F074EC04F0FDD72D6E2D50A9
:102D1000D8A412002CC0CEF00001CF6B120028C442
:082D200008F561EC15F012004A
:020000040020DA
:08000000FFFFFFFFFFFFFFFF00
:020000040030CA
:0E00000003281F3EFF9181FF0FC00FE00F404D
:00000001FF
