:020000040000FA
:0400000039EF00F0E4
:100008005782FACF4BF0FBCF4CF0E1CF4DF0E2CF67
:100018004EF0D9CF4FF0DACF50F0F3CF51F0F4CF04
:1000280052F0F6CF53F0F7CF54F0F8CF55F0F5CFA4
:1000380056F0ECEC0BF056C0F5FF55C0F8FF54C075
:10004800F7FF53C0F6FF52C0F4FF51C0F3FF50C092
:10005800DAFF4FC0D9FF4EC0E2FF4DC0E1FF4CC0F0
:0E006800FBFF4BC0FAFF5792110028EF14F077
:1008000000EA088808BC0809080902400002010043
:1008100080320904000002030101000921110100D6
:1008200001223F00070581030800010705010308B5
:1008300000010904010002FFFFFF00070582020812
:1008400000010705020208000105010906A10105D2
:100850000719E029E7150025017501950881029522
:100860000175088103950575010508190129059190
:100870000295017503910395067508150025FF057E
:1008800007190029FF8100C0340356006900740075
:1008900061006E0069007600650020004C00740065
:1008A0006400200020002000200020002000200004
:1008B0002000200020002000200020001C034B000E
:1008C0006500790062006F00610072006400200022
:1008D0003200300032003000120100020000000837
:0F08E000D80455000100010200010403090400BF
:1008F000200E256001D0120060B2120004D00CC09E
:10090000D1F00DC0D2F00C500001D119F8E10D501A
:10091000D219D8A4F4D70A50D15DF56F0B50D25933
:10092000F66FF6AF0CD00A50D15DE76F0B50D2597D
:10093000E86FFF0EE725F56F7F0EE821F66FF6BF33
:100940000CD0890EF55D130EF659D8A006D0780E9E
:10095000D1250A6EEC0ED2210B6E40EC13F0000193
:10096000BA51BB11D8B406D0BAC0D9FFBBC0DAFFA8
:10097000DFBE9ED0000ED56F050ED66F000ED86F6D
:10098000000ED76F000EDA6F080ED96FF5EC08F085
:100990001550D8B416D0000E0001F46F0ED0F451EB
:1009A000030D190EF324D96E010EF420DA6EDF5018
:1009B00005010011006F0001F42B1550F45DD8A063
:1009C000EED71650D8B429D0000E0001FE6F21D00A
:1009D000060EFE611DD0FE51030D610EF324D96E8B
:1009E000000EF420DA6EDF5005010011006F0001E7
:1009F000FE51030D600EF324D96E000EF420DA6E62
:100A0000020EFE25E16EE26A050EE222DFCFE7FF6D
:100A1000FE2B1650FE5DD8A0DBD7000E0001F36F51
:100A2000000EFC6F000EFC25D96EDA6A050EDA2284
:100A3000980EFC25E16EE26A000EE222DE50E61816
:100A4000D8B403D0010EF36F04D0FC2B070EFC6565
:100A5000E9D7D351D411D8B40CD0D351F55DF651A8
:100A6000800AE76FD451800AE759D8A002D0010E5E
:100A7000F36FF305D8A41CD025EE00F010EE98F02B
:100A8000070EDBCFE3FFE806FCE2010ED56F000E98
:100A9000D66F050ED76F080ED86F010E91EC0DF0D2
:100AA000D5C0BAF0D6C0BBF0D1C00AF0D2C00BF0AE
:100AB000000E0001F76FC4C0E9F0C5C0EAF0C6C07F
:100AC000EBF0F751030D180EF324D96E010EF4204C
:100AD000DA6EE9C0DEFFEAC0DEFFEBC0DEFFF72B17
:100AE000070EF765E8D7000EF86F070EF86501D01E
:100AF00016D0C1C0ECF0C2C0EDF0C3C0EEF0F851AA
:100B0000030D600EF324D96E000EF420DA6EECC0F3
:100B1000DEFFEDC0DEFFEEC0DEFFF82BE6D7000EF5
:100B2000156E000E166ECF51D011D8B406D0CFC0BE
:100B3000D9FFD0C0DAFFDFBE63D0000EF96F030E1D
:100B4000F96501D00AD0100EF925D96EDA6A050EC2
:100B5000DA22000EDF6EF92BF2D71450D8B418D079
:100B6000000EFA6F11D0FA51030D000EF324D96E66
:100B7000010EF420DA6E100EFA25E16EE26A050E1F
:100B8000E222DFCFE7FFFA2B1450FA5DD8A0EBD7B3
:100B9000000EF26F000EFD6F070EFD6501D015D03F
:100BA000100EFD25D96EDA6A050EDA22900EFD25AB
:100BB000E16EE26A000EE222DE50E618D8B403D0FD
:100BC000010EF26F02D0FD2BE7D7F205D8A418D0A2
:100BD000010ED56F100ED66F050ED76F080ED86FA9
:100BE000020E91EC0DF0D5C0CFF0D6C0D0F025EEBE
:100BF00010F010EE90F0070EDBCFE3FFE806FCE20A
:100C0000000E0001FB6F170EFB6501D016D0BEC0B1
:100C1000EFF0BFC0F0F0C0C0F1F0FB51030D000ECB
:100C2000F324D96E010EF420DA6EEFC0DEFFF0C0BF
:100C3000DEFFF1C0DEFFFB2BE6D7000E146EBC51C9
:100C4000BD11D8B406D0BCC0D9FFBDC0DAFFDFBE2D
:100C500012D030EC15F0000E0001D56F080ED66FE3
:100C6000050ED76F010ED86F010E91EC0DF0D5C0B7
:100C7000BCF0D6C0BDF00001CD51CE11D8B406D025
:100C8000CDC0D9FFCEC0DAFFDFBE1200000ED56F97
:100C9000180ED66F050ED76F080ED86F020E91ECA6
:100CA0000DF0D5C0CDF0D6C0CEF012000401320553
:100CB000D8A410D030511F0B0009D8A40BD00001CC
:100CC000AB8F030E04013119D8A402D0010E01D05C
:100CD000000E226E3251D8A4120030511F0B020AAE
:100CE000D8A4120034510F0B0009D8B412003451AB
:100CF0000F0B406E030E40601200200E2518D8A482
:100D000012000001AB8F040134BF18D034510F0B17
:100D1000406E4050020DB40EF324D96E000EF42044
:100D2000DA6EDECF45F0DDCF46F034510F0B406E6A
:100D3000416AC70E4024D96E000E17D034510F0BF4
:100D4000406E4050020DAE0EF324D96E000EF4201A
:100D5000DA6EDECF45F0DDCF46F034510F0B406E3A
:100D6000416ACA0E4024D96E000E4120DA6EDF506F
:100D7000446E44B006D0FB0E4514456EFF0E46147B
:100D800004D0040E4510456E4650466E34BF0AD05E
:100D900034510F0B406E4050020DB40EF324D96E47
:100DA000000E09D034510F0B406E4050020DAE0EB4
:100DB000F324D96E000EF420DA6E45C0DEFF46C083
:100DC000DDFF030E3119D8A42AD045C0D9FF46C093
:100DD000DAFFDFAE17D034BF09D034510F0B406EAD
:100DE000416AC70E4024D96E000E08D034510F0B53
:100DF000406E416ACA0E4024D96E000E4120DA6E60
:100E00000001DF8245C0D9FF46C0DAFF000EDB8457
:100E100045C0D9FF46C0DAFF000EDB8E1200040E7B
:100E20004518456E4650466E45C0D9FF46C0DAFFAC
:100E3000DFAE1BD045C0D9FF46C0DAFF7F0EDF16FC
:100E400045C0D9FF46C0DAFF000EDB8C000E396EBC
:100E5000050E386E45C03AF046C03BF0000E3D6EC0
:100E6000020E3C6ECDEC11F006D045C0D9FF46C055
:100E7000DAFF000EDB8C040E4518456E4650466EB8
:100E800044B206D045C0D9FF46C0DAFFDFAE2DD050
:100E9000040134BF09D034510F0B406E416AC70EB4
:100EA0004024D96E000E08D034510F0B406E416AB9
:100EB000CA0E4024D96E000E4120DA6E0001DF9286
:100EC00045C0D9FF46C0DAFF3B0EDF16000E396E73
:100ED000050E386E45C03AF046C03BF0000E3D6E40
:100EE000020E3C6ECDEC11F006D045C0D9FF46C0D5
:100EF000DAFF3B0EDF16040134510F0B406E416ADE
:100F00006A0E4024426E0F0E4120436E42C0D9FF4C
:100F100043C0DAFFFE0EDF1612003E00013F000163
:100F2000400001410001420001430001440001452D
:100F300000012100011E00011F000120000122000C
:100F40000123000124000125000118400115400182
:100F50001740011C40010C40011440011A400108D7
:100F600040013500013900012B00012900013A0040
:100F7000013B00013C00013D00012600012700016A
:100F80002D00012E000107000306000305000301E8
:100F900000030000000200034900014A00014B0069
:100FA000014E00014D00014C0001164001074001B7
:100FB0003100010400030300031240011340010447
:100FC00040011400011500011700010940010A4009
:100FD000010B40011A00010800011600011B40012D
:100FE0000E40011D40010400010700010900010F2E
:100FF00040012A00013000010C00011800011C0012
:10100000011200012F00011300010E00010B00016D
:101010003400013300010F00012800010D00010A16
:1010200000011900011B00010540010600011940E3
:10103000011D0001064001114001E64002E30802E3
:10104000E10202E204020D4001E780022C0001E00F
:1010500001023800013700013600011000011100C3
:1010600001050001000000E520025A00015D0001B9
:101070006000015400015300015F00015C00015950
:1010800000015600015700015800016300015B0098
:10109000015E000161000155000152000150000194
:1010A0005100014F0001E4100262000165000100DF
:1010B0000000800E04013019D8A41200C00E0001F7
:1010C000AB6F80D0D80E0001A86F080EA96F000E7C
:1010D000AD6F120EAC6F12003251D8A440D0325115
:1010E000020D070EF324F66E080EF420F76E0900C9
:1010F000F5CFA8F00A00F5CFA9F0020E0001A8254F
:101100002C6E000EA9212D6E2CC0F6FF2DC0F7FF0E
:10111000F86A070EF76403D00800F55005D0F6CF43
:10112000E1FFF7CFE2FFE7500001AC6F030EA82507
:101130002C6E000EA9212D6E2CC0F6FF2DC0F7FFDE
:10114000F86A070EF76403D00800F55005D0F6CF13
:10115000E1FFF7CFE2FFE7500001AD6F1200000E94
:101160000001AB6F1200030E326124D03251020D28
:10117000010EF324F66E080EF420F76E0900F5CF89
:10118000A8F00A00F5CFA9F0A8C0F6FFA9C0F7FFA4
:10119000F86A070EF76403D00800F55005D0F6CFC3
:1011A000E1FFF7CFE2FFE7502C6E2C500001AC6F4F
:1011B000AD6B1200000E0001AB6F1200000E0001BB
:1011C000AB6F1200040133512C6E2D6A2D50000AB2
:1011D000D8A4F4D72C50010AD8B474D7030AD8B4D1
:1011E0007BD7010AD8B4BFD7E9D7D5C0DFF0D6C0C6
:1011F000E0F00001D951DA11D8B41200DFC0D9FFF4
:10120000E0C0DAFFD7C0DFFFD951DF25DB6FDA514D
:10121000E021DC6FFF0EDB25D96EFF0EDC21DA6EDC
:10122000D7C0DFFFDA5104E1030ED95DD8A0120068
:1012300020EE01F0DF51D926E051DA22D7C0DFFFDE
:1012400020EE02F0DF51D926E051DA22D7C0DFFFCD
:10125000D951DF25DB6FDA51E021DC6FFE0EDB2593
:10126000D96EFF0EDC21DA6ED7C0DFFFD951DF2542
:10127000DB6FDA51E021DC6FFD0EDB25D96EFF0E4E
:10128000DC21DA6ED7C0DFFFDA5104E1070ED95D49
:10129000D8A0120020EE03F0DF51D926E051DA2267
:1012A000D7C0DFFFD951DF25DB6FDA51E021DC6FDA
:1012B000FC0EDB25D96EFF0EDC21DA6ED7C0DFFF16
:1012C000DA5104E1090ED95DD8A01200DFC0DBF0CD
:1012D000E0C0DCF0DB1FDC1FDB4BDC2B030EDB157F
:1012E000DD6FDE6BDD51DF27DE51E023DD51D95F9D
:1012F000DE51DA5BFC0ED917FF0EDA170BD0DFC018
:10130000D9FFE0C0DAFFD7C0DFFFD907D8A0DA07DE
:10131000DF4BE02BD951DA11D8B41200F0D72CC032
:1013200036F02DC037F030503110D8B4120036C02E
:10133000D9FF37C0DAFF2EC0DFFF30503624326EBF
:1013400031503720336EFF0E3224D96EFF0E33201A
:10135000DA6E2EC0DFFF315004E1030E305CD8A0FE
:10136000120020EE01F03650D9263750DA222EC076
:10137000DFFF20EE02F03650D9263750DA222EC099
:10138000DFFF30503624326E31503720336EFE0E80
:101390003224D96EFF0E3320DA6E2EC0DFFF3050BC
:1013A0003624326E31503720336EFD0E3224D96E22
:1013B000FF0E3320DA6E2EC0DFFF315004E1070E3E
:1013C000305CD8A0120020EE03F03650D9263750FA
:1013D000DA222EC0DFFF30503624326E31503720F3
:1013E000336EFC0E3224D96EFF0E3320DA6E2EC01F
:1013F000DFFF315004E1090E305CD8A0120036C086
:1014000032F037C033F0321E331E324A332A030E15
:101410003214346E356A3450362635503722345003
:10142000305E3550315AFC0E3016FF0E31160BD09F
:1014300036C0D9FF37C0DAFF2EC0DFFF3006D8A094
:101440003106364A372A30503110D8B41200F0D75E
:1014500020EE01F01250D9261350DA22DF50306E00
:1014600030500001A45D000EA559D8A0A4C030F0F2
:101470003050A45F000EA55B000E2F6E0FD0380E0B
:101480002F24D96EDA6A040EDA22A0C0E1FFA1C0CF
:10149000E2FFDFCFE7FFA04BA12B2F2A30502F5CBC
:1014A000D8A0EDD7A451A511D8B432D020EE01F0C8
:1014B0001050D9261150DA22080EDF6E20EE02F00D
:1014C0001050D9261150DA22380EDE6E040EDD6E71
:1014D00012C0D9FF13C0DAFFDFBC0DD010C0D9FF96
:1014E00011C0DAFF480EDF6E10C0D9FF11C0DAFF5D
:1014F000000EDB8E120010C0D9FF11C0DAFF080EFB
:10150000DF6E10C0D9FF11C0DAFF000EDB8E1200B3
:1015100020EE01F01050D9261150DA22080EDF6EAD
:1015200020EE02F01050D9261150DA22300EDE6E75
:10153000040EDD6E10C0D9FF11C0DAFF040EDF6E9D
:1015400010C0D9FF11C0DAFF000EDB8EA651A71123
:10155000D8B40ED020EEA6F001D80AD00500FA6E5D
:10156000DE50FD6EDE50FE6EF850FF6EFA50120037
:101570000001A39F1D50D8A41200BCEC10F0120073
:10158000A394000E676E000E656E000E6A6E6B0E01
:101590000001D56F0F0ED66F000ED86F000ED76FFB
:1015A000000EDA6F020ED96FF5EC08F0120E626EC3
:1015B0009F0E666E7B0E646E000E0001E16FE151BE
:1015C000040D000EF324D96E040EF420DA6EDE6AE8
:1015D000DE6ADE6ADD6AE12B0B0EE165F0D7608C16
:1015E000000E636E6098609C6596000EAB6F000EF7
:1015F000A36F000EA56F000EA46F65B6F5D7010EA0
:101600001C6E010E1B6E000E1A6E000E196E000E7F
:10161000216E000EE16FE151020DAE0EF324D96E82
:10162000000EF420DA6E000EDE6E000EDD6EE1516B
:10163000020DB40EF324D96E000EF420DA6E000E03
:10164000DE6E000EDD6ECA0EE125D96EDA6A000E7E
:10165000DA22000EDF6EC70EE125D96EDA6A000EBF
:10166000DA22000EDF6EE12B020EE165D4D7080E00
:10167000AE6F040EAF6F160E6A6E040E0401036F98
:10168000300E026F080E016F040E006F008F000E07
:101690002B6E000E016E000E026E000E036E000E29
:1016A000046E000E186E000E256E1200A394000E3C
:1016B000676E000E656E000E6A6E6B0E2C6E0F0E5E
:1016C0002D6E000E2F6E000E2E6E000E316E020E6D
:1016D000306E8FEC09F0120E626E9F0E666E7B0EFE
:1016E000646E000E386E3850040D000EF324D96E6F
:1016F000040EF420DA6EDE6ADE6ADE6ADD6A382AFB
:101700000B0E3864F0D7608C000E636E6098609C9E
:101710006596000E0001AB6F000EA36F000EA56F63
:10172000000EA46F65B6F4D7010E1C6E010E1B6E81
:10173000000E1A6E000E196E000E216E000E386E2D
:101740003850020DAE0EF324D96E000EF420DA6E7E
:10175000000EDE6E000EDD6E3850020DB40EF32466
:10176000D96E000EF420DA6E000EDE6E000EDD6E15
:10177000CA0E3824D96EDA6A000EDA22000EDF6E45
:10178000C70E3824D96EDA6A000EDA22000EDF6E38
:10179000382A020E3864D4D7080E0001AE6F040E4A
:1017A000AF6F160E6A6E040E0401036F300E026FE7
:1017B000080E016F040E006F008F000E2B6E000EDE
:1017C000016E000E026E000E036E000E046E000E1F
:1017D000186E000E256E12002504D8B460BA06D02B
:1017E000000E656E64806488020E256E65B464A484
:1017F00003D0659402EC16F060A202D0A49412000B
:1018000065B064A006D056EC0BF0A384040E256EE0
:10181000659065B864A802D061EC16F065AC1AD08A
:1018200064AC0ED0000E396E730E386E000E3A6E38
:10183000000E3B6E000E3D6E010E3C6ECDEC11F0C5
:10184000659C8AEC16F01E50D8A41E061E50D8B413
:10185000BCEC10F065BA64AA02D00FEC15F065B2CA
:1018600064A20FD07F0E396E3868000E3A6E000EFB
:101870003B6E000E3D6E010E3C6ECDEC11F0000E85
:10188000676E040E256002D0A494120064A634D0C2
:10189000000E4A6E65A630D061CF2AF02A30E832B9
:1018A000E8320F0B206E65962AB406D0C70E2024AE
:1018B000D96EDA6A000E05D0CA0E2024D96EDA6A13
:1018C000000EDA220001DF702050D8A403D019ECFA
:1018D00012F00ED0000E396E720E386E2A0E3A6E6D
:1018E000000E3B6E000E3D6E000E3C6ECDEC11F016
:1018F0004A2A030E4A64CED7A49412001750D8B4D3
:101900001200000E0001DB6F65D0DB51030D780E75
:10191000F324D96E000EF420DA6E1650030D600E1B
:10192000F324E16E000EF420E26EDECFE6FFDECFA0
:10193000E6FFDECFE6FF162A4CD0DB51030D780E12
:10194000F324D96E000EF420DA6E1550030D180E34
:10195000F324E16E010EF420E26EDECFE6FFDECF6F
:10196000E6FFDECFE6FF152A34D0040E146031D036
:10197000DB51030D780EF324D96E000EF420DA6EDD
:101980001450030D000EF324E16E010EF420E26EFC
:10199000DECFE6FFDECFE6FFDECFE6FF142A19D06A
:1019A000DB51030D7A0EF324D96E000EF420DA6EAB
:1019B000DF50D56FD66BD651000AD8A40AD0D551C6
:1019C000010AD8B4A2D7030AD8B4B7D7010AD8B449
:1019D000CCD7DB2B1750DB5DD8A0E2D7000EDA6F37
:1019E00005C0D7F006C0D8F007C0D9F0DA51030D12
:1019F000780EF324D96E000EF420DA6ED7C0DEFF25
:101A0000D8C0DEFFD9C0DEFFDA2B070EDA65E8D7D3
:101A1000000E176E1200040130511F0BE806D8A407
:101A200012003451D8A41200060E3119D8B41AD0BD
:101A300028D02B04D8A425D01B0E0001A86F080EB7
:101A4000A96F000EAD6F090E0BD0C00EAB6F19D091
:101A5000490E0001A86F080EA96F000EAD6F3F0E72
:101A6000AC6FF3D733512E6E2F6A2F50000AD8A4D3
:101A700008D02E50210AD8B4DCD7030AD8B4E8D74E
:101A8000010A04013039E832030BE806D8A4120039
:101A90002DD099EC16F01200290E0001A86F000E4F
:101AA000A96F000EAD6F010EAC6FC10EAB6F1200CF
:101AB000800E0001AB6F33C429F029C02CF0040163
:101AC0003251B2EC16F01200280E0001A86F000E81
:101AD000A96F000EAD6F010EAC6F810EAB6F1200DF
:101AE000800E0001AB6F32C428F0120031512E6E0F
:101AF0002F6A2F50000AD8A412002E50010AD8B421
:101B00001200030AD8B4C8D7010AD8B4DDD70A0A2C
:101B1000D8B4BFD7030AD8B4CBD7010AD8A41200CF
:101B2000DFD70001DD6F0001D551D8B407D0DD51FA
:101B3000020DAE0EF324D96E000E06D0DD51020D5B
:101B4000B40EF324D96E000EF420DA6EDECFDEF090
:101B5000DDCFDFF0DE51DF11D8A405D0000ED56F48
:101B6000000ED66F120020EE02F0DE51D926DF51B2
:101B7000DA22D6C0DEFFD7C0DDFF20EE01F0DE5155
:101B8000D926DF51DA22D8C0DFFFDEC0D9FFDFC09F
:101B9000DAFF400EDF16DEC0D9FFDFC0DAFF000E2D
:101BA000DB86DEC0D9FFDFC0DAFF000EDB8ED55149
:101BB000D8B418D0DD51020DAE0EF324D96E000E4C
:101BC000F420DA6EDECFD9F0DDCFDAF0040ED919C9
:101BD000DB6FDA51DC6FDD51020DAE0EF324D96EEE
:101BE000000E17D0DD51020DB40EF324D96E000E95
:101BF000F420DA6EDECFD9F0DDCFDAF0040ED91999
:101C0000DB6FDA51DC6FDD51020DB40EF324D96EB7
:101C1000000EF420DA6EDBC0DEFFDCC0DDFFDEC0CC
:101C2000D5F0DFC0D6F01200346E2C50D8B407D0F7
:101C30003450020DAE0EF324D96E000E06D034508F
:101C4000020DB40EF324D96E000EF420DA6EDECF4E
:101C500035F0DDCF36F035503610D8A405D0000E63
:101C60002C6E000E2D6E120020EE02F03550D9269B
:101C70003650DA222DC0DEFF2EC0DDFF20EE01F04F
:101C80003550D9263650DA222FC0DFFF35C0D9FFB4
:101C900036C0DAFF400EDF1635C0D9FF36C0DAFF96
:101CA000000EDB8635C0D9FF36C0DAFF000EDB8EB2
:101CB0002C50D8B418D03450020DAE0EF324D96E87
:101CC000000EF420DA6EDECF30F0DDCF31F0040EFE
:101CD0003018326E3150336E3450020DAE0EF32494
:101CE000D96E000E17D03450020DB40EF324D96E05
:101CF000000EF420DA6EDECF30F0DDCF31F0040ECE
:101D00003018326E3150336E3450020DB40EF3245D
:101D1000D96E000EF420DA6E32C0DEFF33C0DDFF74
:101D200035C02CF036C02DF01200AEC0D9FFAFC0C8
:101D3000DAFF0001000EDFBC010E2F6E040EAE199B
:101D4000AE6FAF51AF6F080E2518D8A40BD00401A9
:101D500032517F0B636E6350D8B402D0100E01D0A5
:101D6000040E256E2304D8A43BD0000120EE02F01F
:101D7000AE51D926AF51DA22380EDE6E040EDD6E7A
:101D800056EC10F0020E2418D8A40DD0AEC0D9FF26
:101D9000AFC0DAFF040EDF6EAEC0D9FFAFC0DAFF0E
:101DA000000EDB8E12002F50D8A40DD0AEC0D9FF8C
:101DB000AFC0DAFF480EDF6EAEC0D9FFAFC0DAFFAA
:101DC000000EDB8E1200AEC0D9FFAFC0DAFF080EE6
:101DD000DF6EAEC0D9FFAFC0DAFF000EDB8E12009F
:101DE0000001A3AF14D0A651A711D8B40ED020EE95
:101DF000A6F001D80AD00500FA6EDE50FD6EDE5066
:101E0000FE6EF850FF6EFA5012000001A39F000E04
:101E1000236E120004013039E832030B0009D8A404
:101E2000120042D00001AB8F080E256E120059EC53
:101E300008F01200ECEC0FF012002B0E0001A86F5E
:101E4000000EA96FAB81010EAC6FAB8F12001EECC0
:101E500011F0120056EC06F01200260E3425000197
:101E6000A86FA96B000EA923AB81010EAC6FAB8FDD
:101E700012000001AB8F260E04013425D96EDA6AF8
:101E8000000EDA2232C4DFFF1200000E396E020E9D
:101E9000386E000E3A6E000E3B6E000E3D6E000E68
:101EA0003C6ECDEC11F012003151476E486A48503B
:101EB000000AD8A412004750000AD8B4C8D7010AB3
:101EC000D8B4C8D7020AD8B4C5D7060AD8B4AAD796
:101ED000030AD8B4ACD7010AD8B4D7D70F0AD8B4FC
:101EE000ACD7010AD8B4A6D7030AD8B4B6D7010A2A
:101EF000D8B4BFD7070A120060980001ABBF38D032
:101F0000A3AF0BD0020E236E1950D8B47EEC11F0A3
:101F1000000E1B6E000E1C6E120020EE01F0105021
:101F2000D9261150DA22080EDF6E20EE02F0105092
:101F3000D9261150DA22300EDE6E040EDD6E10C08E
:101F4000D9FF11C0DAFF0C0EDF6E10C0D9FF11C02F
:101F5000DAFF000EDB8EAEC0D9FFAFC0DAFF040E91
:101F6000DF6EAEC0D9FFAFC0DAFF000EDB8E12000D
:101F7000040130AF10D0010E236E1A50D8B47EEC9D
:101F800011F0000E1B6E000E1C6E1D50D8A4120026
:101F9000BCEC10F01200020E236E20EE01F0105087
:101FA000D9261150DA22080EDF6E20EE02F0105012
:101FB000D9261150DA22300EDE6E040EDD6E10C00E
:101FC000D9FF11C0DAFF040EDF6E10C0D9FF11C0B7
:101FD000DAFF000EDB8ED5D70001AB8F6B0E2C6EB7
:101FE0000F0E2D6E000E2F6E000E2E6E000E316E37
:101FF000020E306E8FEC09F0000E2C6E040E2D6E6A
:10200000000E2F6E000E2E6E000E316E300E306EF2
:102010008FEC09F0608C000E406ECA0E4024D96E21
:10202000DA6A000EDA22000EDF6EC70E4024D96E87
:10203000DA6A000EDA22000EDF6E402A020E4064D9
:10204000ECD7260E2C6E000E2D6E000E2F6E000E9D
:102050002E6E000E316E020E306E8FEC09F0609C19
:10206000080E0001AE6F040EAF6F000E126E040E6C
:10207000136E12C010F013C011F032C42BF02B50AD
:10208000D8A403D0100E256E1200000E396E010E7A
:10209000386E2B0E3A6E000E3B6E000E3D6E010E3A
:1020A0003C6ECDEC11F0200E256E1200080E2C6E49
:1020B0000001AD5110E1080EAC5DD8B00CD0ACC041
:1020C0002CF02450D8A402D0010E04D02404D8A4AB
:1020D00002D0020E246E2C50AC5F000EAD5B20EEE1
:1020E00001F0AE51D926AF51DA222CC0DFFF380EF5
:1020F0000E6E040E0F6EABA11CD03AD0A8C0F6FF36
:10210000A9C0F7FFF86A0EC0D9FF0FC0DAFF070EAB
:10211000F76403D00800F55005D0F6CFE1FFF7CF04
:10212000E2FFE750DF6E0001A84BA92B0E4A0F2AF1
:102130002C062C50D8B41200E1D7A8C0F6FFA9C0D5
:10214000F7FFF86A0EC0D9FF0FC0DAFF070EF76479
:1021500003D00800F55005D0F6CFE1FFF7CFE2FF3E
:10216000E750DF6E0001A84BA92B0E4A0F2A2C0660
:102170002C50D8B41200E1D71C50D8A41200010E84
:102180001C6E1B50D8A41200010E1B6E020E2318E9
:10219000D8A416D0000120EE01F0AE51D926AF51DF
:1021A000DA22000EDF6EAEC0D9FFAFC0DAFF480EF4
:1021B000DF6EAEC0D9FFAFC0DAFF000EDB8E1200BB
:1021C0002304D8A41200000E1F6E20EE01F012505E
:1021D000D9261350DA22080EDF6E20EE02F01250DC
:1021E000D9261350DA22300EDE6E040EDD6E12C0D8
:1021F000D9FF13C0DAFF040EDF6E12C0D9FF13C07F
:10220000DAFF000EDB8E010E1F6E20EE01F0105083
:10221000D9261150DA22080EDF6E20EE02F010509F
:10222000D9261150DA22300EDE6E040EDD6E10C09B
:10223000D9FF11C0DAFF800EDF6E1200000E04011C
:10224000386F000E396F3DD00001AB8F2204D8A447
:102250004AD00401388347D00001AB8F44D000013D
:10226000AB8F040134510F0B0009D8B43CD034BFFC
:102270000AD034510F0B2C6E2C50020DB40EF324E7
:10228000D96E000E09D034510F0B2C6E2C50020D5C
:10229000AE0EF324D96E000EF420DA6EDECF2EF0EF
:1022A000DDCF2FF02EC0D9FF2FC0DAFFDFAE1BD05D
:1022B0002EC0D9FF2FC0DAFFDFA415D0010E386F72
:1022C00012D030511F0B2C6E2D6A2D50000AD8A44D
:1022D0000AD02C50000AD8B4B7D7010AD8B4BCD75A
:1022E000030AD8B4BCD70001ABAF1200380EA86FF8
:1022F000040EA96FAB81020EAC6F1200000E1A6EB5
:10230000000E196E020E2318D8A41FD020EE01F083
:102310001050D9261150DA22080EDF6E20EE02F09E
:102320001050D9261150DA22380EDE6E040EDD6E02
:1023300010C0D9FF11C0DAFF480EDF6E10C0D9FF00
:1023400011C0DAFF000EDB8E12000001AC51040157
:10235000365D0001AD5104013759D8B004D036C400
:10236000ACF037C4ADF056EC10F0000120EE02F0F6
:10237000AE51D926AF51DA22380EDE6E040EDD6E74
:10238000AEC0D9FFAFC0DAFF480EDF6EAEC0D9FFD6
:10239000AFC0DAFF000EDB8E120022D0C4EC13F0C7
:1023A0000C2804E17F0E0D18D8B403D00C4A0D2A76
:1023B0001200000E0D6E000E0C6E1200C4EC13F035
:1023C000010E7DEC14F01200C4EC13F0020E7DEC53
:1023D00014F0120082EC13F012000BEC0DF012005E
:1023E00038C03EF039C03FF03F50000AD8B404D0A6
:1023F0007F0AD8A412001AD03E50010AD8B4EAD7F6
:10240000030AD8B41200010AD8B4E7D7060AD8B430
:102410001200770AD8B41200010AD8B4BFD7070A4D
:10242000D8B4D2D7010AD8A41200C8D73E50FF0AA8
:1024300012002D0E1E6E2AC049F0FD0E4916D8A4BA
:102440003BD02AC049F0D89049323F0E4916495036
:10245000040D000EF324126E040EF420136E12C04D
:1024600010F013C011F0040E1018106E1150116E00
:1024700012C0D9FF13C0DAFFDF30E8320F0B0D0AAC
:10248000D8A417D0300E2C6E040E2D6E20EE02F064
:102490001250D9261350DA22DECF2EF0DDCF2FF0E6
:1024A000000E316E080E306EEDEC14F0F8EC12F008
:1024B0001200FAEC13F012002A50FD0B040AD8A403
:1024C000120095EC0EF012000001DC6F010E00010D
:1024D000DF6F000EDE6F0D0E0001D86FFB0EE82ED1
:1024E000FED7D82FFCD700D0000E0001E06F80CFC0
:1024F000DDF0DE51DD11DE6FE02B040EE065F7D775
:10250000000EE16FDE51DF150009D8B41ED0E15195
:10251000030DF3CFD8F0F4CFD9F0DC51180D200E15
:10252000DA6F050EDB6FF350DA27F450DB23D85156
:10253000DA25D96ED951DB21DA6EDECFD5F0DECFC8
:10254000D6F0DDCFD7F077EC16F00001DF51DF25B4
:10255000DF6FE12B070EE165D5D71200316E000E5B
:10256000326E040E336E2C502D6E2E6AD8902D369E
:102570002E3631502F6E306AD8902F363036D890A4
:102580002F3630362D502F262E503022D8902F3611
:102590003036D8902F3630362F50322630503322F6
:1025A00032C0D9FF33C0DAFFDF9E2C50D8A407D049
:1025B0003150020DB40EF324D96E000E06D0315006
:1025C000020DAE0EF324D96E000EF420DA6E32C086
:1025D000DEFF33C0DDFF32C0D9FF33C0DAFFDF9C3E
:1025E00020EE04F03250D9263350DA22DF8C12006C
:1025F000000E246E000E1D6E000E1A6E000E196E77
:10260000000E1F6E000E236EAEC0D9FFAFC0DAFF02
:102610007F0EDF16040E0001AE19AE6FAF51AF6F23
:10262000AEC0D9FFAFC0DAFF7F0EDF16040EAE19C1
:10263000AE6FAF51AF6F10C0D9FF11C0DAFF7F0E80
:10264000DF16000EAB6F000EAD6F000EAC6F000E0C
:10265000A36F000EA56F000EA46F0AEC0FF0000E22
:10266000396E030E386E000E3A6E000E3B6E000E91
:102670003D6E000E3C6ECDEC11F07CEC0FF01200C4
:10268000000E0001E56F010EE66F000EE26FE6C07E
:102690008CFFE651E625E66FE55164EC12F000018F
:1026A000E52BE22B070EE265F2D7000E8C6E010ED1
:1026B000E66F000EE36FE6C08AFFE651E625E66F9F
:1026C000E55164EC12F00001E52BE32B050EE36508
:1026D000F2D7000E8A6E010EE66F000EE46FE6C0C0
:1026E0008BFFE651E625E66FE55164EC12F0000140
:1026F000E52BE42B020EE465F2D7000E8B6E7EEC28
:102700000CF01200000E0001BA6F000EBB6F000E3D
:10271000CF6F000ED06F010ED46FF40ED36F04D0C4
:102720000CC00AF00DC00BF00C500A18F9E10D5066
:102730000B18D8A4F5D71E0E346E010EE6EC15F07A
:102740001E0E346E020EE6EC15F0000E2C6E080E16
:102750002D6E050E2E6E010E2F6E010E14EC0EF076
:102760002CC0BCF02DC0BDF0000E2C6E180E2D6ECE
:10277000050E2E6E080E2F6E020E14EC0EF02CC0FD
:10278000CDF02DC0CEF0120060B2120024D00804AB
:102790000910D8B42CD04B0E08180910D8B427D083
:1027A000095004E1970E085CD8A021D0000E096EF4
:1027B000000E086E1CD008040910D8B418D0320ED0
:1027C00008180910D8B413D0B70E085C030E0958C6
:1027D000D8B0ECD70CD025502C6E2D6A2D50000AA5
:1027E000D8A4E9D72C50200AD8B4D1D7E4D7084AC6
:1027F000092A1200020E2318D8A403D028EC0AF0EC
:102800001200000E236E1F50D8A41FD020EE01F03E
:102810001050D9261150DA22080EDF6E20EE02F099
:102820001050D9261150DA22300EDE6E040EDD6E05
:1028300010C0D9FF11C0DAFF0C0EDF6E10C0D9FF37
:1028400011C0DAFF000EDB8E1200000E1F6E1200A8
:102850001A0EF66E0F0EF76E000EF86E05EE20F0F3
:1028600011EE98F00900F5CFEEFFE550E150FAE1E6
:10287000E250F8E101EE00F0300EEE6AE806FDE10C
:1028800000EE60F0750EEE6AE806FDE100EE01F084
:102890002B0EEE6AE806FDE157905792000EF86E97
:1028A0000001A8EF16F00001DA6F16D0800E9B6EC3
:1028B000600ED36E100ED26ED2AEFED7900EB56EF5
:1028C000010EA5EC14F0020EA5EC14F0030EA5EC1D
:1028D00014F033EC16F012000001DA51D86FD96B06
:1028E000D951000AD8A41200D851000AD8B4DED7B2
:1028F000010AD8B41200030A1200316E16D0800EFD
:102900009B6E600ED36E100ED26ED2AEFED7900EBE
:10291000B56E010ECAEC14F0020ECAEC14F0030EF0
:10292000CAEC14F04AEC16F0120031502F6E306AE7
:102930003050000AD8A412002F50000AD8B4DFD7B4
:10294000010AD8B41200030A12000001D76F0CD09C
:1029500096900F015F91120096920F015F91120005
:1029600096940F015F9112000001D751D56FD66B7D
:10297000D651000AD8A41200D551000AD8B41200CA
:10298000010AD8B4E5D7030AD8B4E6D7010AD8A417
:102990001200E6D72E6E0CD096900F015F911200B8
:1029A00096920F015F91120096940F015F911200B1
:1029B0002E502C6E2D6A2D50000AD8A412002C50D7
:1029C000000AD8B41200010AD8B4E6D7030AD8B472
:1029D000E7D7010AD8A41200E7D72EC034F02FC0E1
:1029E00035F02CC032F02DC033F010D034C0D9FFF8
:1029F00035C0DAFFDF50366E344A352A32C0D9FF8F
:102A000033C0DAFF36C0DFFF324A332A3006D8A09F
:102A100031063028EBE13128D8B41200E7D76AA09C
:102A20001DD012C0D9FF13C0DAFF800EDE18D8A463
:102A300014D0AEC0D9FFAFC0DAFF840EDE18D8A420
:102A40000CD012C0D9FF13C0DAFF0C0EDF6E12C01B
:102A5000D9FF13C0DAFF000EDB8E6A90659A120070
:102A6000050108A304D0010E4FEC15F003D0010EB0
:102A70006EEC15F0050108A104D0020E4FEC15F024
:102A800003D0020E6EEC15F0050108A504D0030E6C
:102A90004FEC15F01200030E6EEC15F01200000161
:102AA000D76F06D08D8012008D8212008D841200A7
:102AB0000001D751D56FD66BD651000AD8A41200A9
:102AC000D551000AD8B41200010AD8B4EBD7030AD2
:102AD000D8B4EAD7010AD8A41200E8D70001D76F0A
:102AE00006D08D9012008D9212008D94120000017C
:102AF000D751D56FD66BD651000AD8A41200D55144
:102B0000000AD8B41200010AD8B4EBD7030AD8B42B
:102B1000EAD7010AD8A41200E8D7050108A304D017
:102B2000010EACEC15F003D0010EC9EC15F0050157
:102B300008A104D0020EACEC15F003D0020EC9ECD3
:102B400015F0050108A504D0030EACEC15F0120039
:102B5000030EC9EC15F012002E6E06D08D80120007
:102B60008D8212008D8412002E502C6E2D6A2D50F5
:102B7000000AD8A412002C50000AD8B41200010A8E
:102B8000D8B4ECD7030AD8B4EBD7010AD8A4120002
:102B9000E9D72E6E06D08D9012008D9212008D9482
:102BA00012002E502C6E2D6A2D50000AD8A412004F
:102BB0002C50000AD8B41200010AD8B4ECD7030A8A
:102BC000D8B4EBD7010AD8A41200E9D7376E34A4E1
:102BD00005D0000E2C6E3750AEEC12F034A205D0AA
:102BE000010E2C6E3750AEEC12F06A0E3724356EA3
:102BF000366A0F0E362235C0D9FF36C0DAFF34C030
:102C0000DFFF1200000E216E000E396E740E386E5A
:102C1000000E3A6E000E3B6E000E3D6E000E3C6ED6
:102C2000CDEC11F06092649401D0659465B4FDD749
:102C3000000E186E12002550D8A41200000E606E0F
:102C4000000E646E120E626E9F0E666E7B0E646ED8
:102C5000D08EA584A384F28E01D0608660A6FDD7B5
:102C6000010E256E1200000E0F015C6F000E5D6FED
:102C7000000E5E6F000E5B6F000E936E000E946E82
:102C8000000E956E9268000E8A6E000E8B6E000E1E
:102C90008C6E1200000E0F015C6F000E5D6F000E57
:102CA0005E6F000E5B6F000E936E000E946E000E52
:102CB000956E9268000E8A6E000E8B6E000E8C6E02
:102CC0001200648465986082010E216E000E186EF9
:102CD000000E396E750E386E000E3A6E000E3B6EA9
:102CE000000E3D6E000E3C6ECDEC11F01200080E91
:102CF000176012001750030D780EF324D96E000EE2
:102D0000F420DA6ED5C0DEFFD6C0DEFFD7C0DEFF0E
:102D1000172A1200010E0126000E022203220422AD
:102D20002150D8A41200182A1850D8A412001868EC
:102D30001200380E0001A06F040EA16F000EA56FE7
:102D4000080EA46F760EA66F2D0EA76FA38F12002C
:102D5000000E53EC14F0C0EC0AF01BEC16F078EC0B
:102D600004F0FDD72D6E2D50D8A412002CC0D3F046
:102D70000001D46B120038C408F58DEC15F0120078
:020000040020DA
:08000000FFFFFFFFFFFFFFFF00
:020000040030CA
:0E00000003281F3EFF9181FF0FC00FE00F404D
:00000001FF
